{
  "contractName": "EnumerableSetMock",
  "abi": [
    {
      "anonymous": false,
      "inputs": [
        {
          "indexed": false,
          "internalType": "bool",
          "name": "result",
          "type": "bool"
        }
      ],
      "name": "TransactionResult",
      "type": "event"
    },
    {
      "constant": true,
      "inputs": [
        {
          "internalType": "address",
          "name": "value",
          "type": "address"
        }
      ],
      "name": "contains",
      "outputs": [
        {
          "internalType": "bool",
          "name": "",
          "type": "bool"
        }
      ],
      "payable": false,
      "stateMutability": "view",
      "type": "function"
    },
    {
      "constant": false,
      "inputs": [
        {
          "internalType": "address",
          "name": "value",
          "type": "address"
        }
      ],
      "name": "add",
      "outputs": [],
      "payable": false,
      "stateMutability": "nonpayable",
      "type": "function"
    },
    {
      "constant": false,
      "inputs": [
        {
          "internalType": "address",
          "name": "value",
          "type": "address"
        }
      ],
      "name": "remove",
      "outputs": [],
      "payable": false,
      "stateMutability": "nonpayable",
      "type": "function"
    },
    {
      "constant": true,
      "inputs": [],
      "name": "enumerate",
      "outputs": [
        {
          "internalType": "address[]",
          "name": "",
          "type": "address[]"
        }
      ],
      "payable": false,
      "stateMutability": "view",
      "type": "function"
    },
    {
      "constant": true,
      "inputs": [],
      "name": "length",
      "outputs": [
        {
          "internalType": "uint256",
          "name": "",
          "type": "uint256"
        }
      ],
      "payable": false,
      "stateMutability": "view",
      "type": "function"
    },
    {
      "constant": true,
      "inputs": [
        {
          "internalType": "uint256",
          "name": "index",
          "type": "uint256"
        }
      ],
      "name": "get",
      "outputs": [
        {
          "internalType": "address",
          "name": "",
          "type": "address"
        }
      ],
      "payable": false,
      "stateMutability": "view",
      "type": "function"
    }
  ],
  "bytecode": "0x608060405234801561001057600080fd5b506107bc806100206000396000f3fe608060405234801561001057600080fd5b50600436106100625760003560e01c80630a3b0a4f146100675780631f7b6d32146100ab57806329092d0e146100c95780635dbe47e81461010d5780639507d39a14610169578063ff9f78b3146101d7575b600080fd5b6100a96004803603602081101561007d57600080fd5b81019080803573ffffffffffffffffffffffffffffffffffffffff169060200190929190505050610236565b005b6100b361028d565b6040518082815260200191505060405180910390f35b61010b600480360360208110156100df57600080fd5b81019080803573ffffffffffffffffffffffffffffffffffffffff16906020019092919050505061029e565b005b61014f6004803603602081101561012357600080fd5b81019080803573ffffffffffffffffffffffffffffffffffffffff1690602001909291905050506102f5565b604051808215151515815260200191505060405180910390f35b6101956004803603602081101561017f57600080fd5b8101908080359060200190929190505050610312565b604051808273ffffffffffffffffffffffffffffffffffffffff1673ffffffffffffffffffffffffffffffffffffffff16815260200191505060405180910390f35b6101df61032f565b6040518080602001828103825283818151815260200191508051906020019060200280838360005b83811015610222578082015181840152602081019050610207565b505050509050019250505060405180910390f35b600061024c82600061034090919063ffffffff16565b90507f5f2d66b608a7b4bfa43b7e9ba385022741152c97499b8a8abcd5c27258417b5a81604051808215151515815260200191505060405180910390a15050565b60006102996000610410565b905090565b60006102b482600061042190919063ffffffff16565b90507f5f2d66b608a7b4bfa43b7e9ba385022741152c97499b8a8abcd5c27258417b5a81604051808215151515815260200191505060405180910390a15050565b600061030b82600061060f90919063ffffffff16565b9050919050565b600061032882600061065e90919063ffffffff16565b9050919050565b606061033b60006106a2565b905090565b600061034c838361060f565b61040557826001018290806001815401808255809150509060018203906000526020600020016000909192909190916101000a81548173ffffffffffffffffffffffffffffffffffffffff021916908373ffffffffffffffffffffffffffffffffffffffff1602179055508360000160008473ffffffffffffffffffffffffffffffffffffffff1673ffffffffffffffffffffffffffffffffffffffff168152602001908152602001600020819055506001905061040a565b600090505b92915050565b600081600101805490509050919050565b600061042d838361060f565b1561060457600060018460000160008573ffffffffffffffffffffffffffffffffffffffff1673ffffffffffffffffffffffffffffffffffffffff168152602001908152602001600020540390506000600185600101805490500390508181146105725760008560010182815481106104a257fe5b9060005260206000200160009054906101000a900473ffffffffffffffffffffffffffffffffffffffff169050808660010184815481106104df57fe5b9060005260206000200160006101000a81548173ffffffffffffffffffffffffffffffffffffffff021916908373ffffffffffffffffffffffffffffffffffffffff160217905550600183018660000160008373ffffffffffffffffffffffffffffffffffffffff1673ffffffffffffffffffffffffffffffffffffffff16815260200190815260200160002081905550505b8460000160008573ffffffffffffffffffffffffffffffffffffffff1673ffffffffffffffffffffffffffffffffffffffff16815260200190815260200160002060009055846001018054806105c457fe5b6001900381819060005260206000200160006101000a81549073ffffffffffffffffffffffffffffffffffffffff02191690559055600192505050610609565b600090505b92915050565b6000808360000160008473ffffffffffffffffffffffffffffffffffffffff1673ffffffffffffffffffffffffffffffffffffffff168152602001908152602001600020541415905092915050565b600082600101828154811061066f57fe5b9060005260206000200160009054906101000a900473ffffffffffffffffffffffffffffffffffffffff16905092915050565b60608082600101805490506040519080825280602002602001820160405280156106db5781602001602082028038833980820191505090505b50905060005b836001018054905081101561077d578360010181815481106106ff57fe5b9060005260206000200160009054906101000a900473ffffffffffffffffffffffffffffffffffffffff1682828151811061073657fe5b602002602001019073ffffffffffffffffffffffffffffffffffffffff16908173ffffffffffffffffffffffffffffffffffffffff168152505080806001019150506106e1565b508091505091905056fea265627a7a72315820c4a769c3a8f53cc62e7b0f89bec1112c089837ee84f8b0ccfcc472573e24c68364736f6c63430005100032",
  "source": "pragma solidity ^0.5.0;\n\nimport \"../utils/EnumerableSet.sol\";\n\ncontract EnumerableSetMock{\n    using EnumerableSet for EnumerableSet.AddressSet;\n\n    event TransactionResult(bool result);\n\n    EnumerableSet.AddressSet private set;\n\n    function contains(address value) public view returns (bool) {\n        return set.contains(value);\n    }\n\n    function add(address value) public {\n        bool result = set.add(value);\n        emit TransactionResult(result);\n    }\n\n    function remove(address value) public {\n        bool result = set.remove(value);\n        emit TransactionResult(result);\n    }\n\n    function enumerate() public view returns (address[] memory) {\n        return set.enumerate();\n    }\n\n    function length() public view returns (uint256) {\n        return set.length();\n    }\n\n    function get(uint256 index) public view returns (address) {\n        return set.get(index);\n    }\n}\n",
  "sourcePath": "E:\\Codes\\Blockchain\\DAI_Wallet\\src\\contracts\\openzeppelin\\contracts\\mocks\\EnumerableSetMock.sol",
  "compiler": {
    "name": "solc",
    "version": "0.5.16+commit.9c3226ce.Emscripten.clang"
  },
  "schemaVersion": "3.2.2",
  "updatedAt": "2020-12-07T12:20:50.412Z",
  "devdoc": {
    "methods": {}
  },
  "userdoc": {
    "methods": {}
  }
}